{
  "contractName": "bankingApplication",
  "abi": [
    {
      "inputs": [],
      "payable": false,
      "stateMutability": "nonpayable",
      "type": "constructor",
      "signature": "constructor"
    },
    {
      "payable": true,
      "stateMutability": "payable",
      "type": "fallback"
    },
    {
      "anonymous": false,
      "inputs": [
        {
          "indexed": false,
          "name": "_from",
          "type": "address"
        },
        {
          "indexed": false,
          "name": "message",
          "type": "string"
        }
      ],
      "name": "deposited",
      "type": "event",
      "signature": "0x047203ab38a28e9aec6c1194dfcedd93f02f8f1b70ad99188eb981bc5df9a9b1"
    },
    {
      "anonymous": false,
      "inputs": [
        {
          "indexed": false,
          "name": "_from",
          "type": "address"
        },
        {
          "indexed": false,
          "name": "newBalance",
          "type": "uint256"
        },
        {
          "indexed": false,
          "name": "message",
          "type": "string"
        }
      ],
      "name": "withdrawal",
      "type": "event",
      "signature": "0xe0fced18c96d5fecafed507c58979ba4aed75b5c59433b1eea2b136380d4e661"
    },
    {
      "anonymous": false,
      "inputs": [
        {
          "indexed": false,
          "name": "_from",
          "type": "address"
        },
        {
          "indexed": false,
          "name": "message",
          "type": "string"
        }
      ],
      "name": "createdAccount",
      "type": "event",
      "signature": "0x13810d3c52dd8720a6cebb2685d11ca2d594fc3468a0d955a2ce87c9c1dcf465"
    },
    {
      "constant": false,
      "inputs": [],
      "name": "deposit",
      "outputs": [],
      "payable": true,
      "stateMutability": "payable",
      "type": "function",
      "signature": "0xd0e30db0"
    },
    {
      "constant": false,
      "inputs": [
        {
          "name": "amount",
          "type": "uint256"
        }
      ],
      "name": "withDraw",
      "outputs": [],
      "payable": true,
      "stateMutability": "payable",
      "type": "function",
      "signature": "0x14174f33"
    },
    {
      "constant": true,
      "inputs": [],
      "name": "getBalance",
      "outputs": [
        {
          "name": "",
          "type": "uint256"
        }
      ],
      "payable": false,
      "stateMutability": "view",
      "type": "function",
      "signature": "0x12065fe0"
    },
    {
      "constant": false,
      "inputs": [],
      "name": "createAccount",
      "outputs": [],
      "payable": false,
      "stateMutability": "nonpayable",
      "type": "function",
      "signature": "0x9dca362f"
    },
    {
      "constant": true,
      "inputs": [],
      "name": "getContractBalance",
      "outputs": [
        {
          "name": "",
          "type": "uint256"
        }
      ],
      "payable": false,
      "stateMutability": "view",
      "type": "function",
      "signature": "0x6f9fb98a"
    }
  ],
  "bytecode": "0x608060405234801561001057600080fd5b506000808190555033600160006101000a81548173ffffffffffffffffffffffffffffffffffffffff021916908373ffffffffffffffffffffffffffffffffffffffff1602179055506001600260003373ffffffffffffffffffffffffffffffffffffffff1673ffffffffffffffffffffffffffffffffffffffff16815260200190815260200160002060000160006101000a81548160ff0219169083151502179055506000600260003373ffffffffffffffffffffffffffffffffffffffff1673ffffffffffffffffffffffffffffffffffffffff16815260200190815260200160002060010181905550610c5d8061010b6000396000f3fe60806040526004361061006d576000357c0100000000000000000000000000000000000000000000000000000000900463ffffffff16806312065fe01461006f57806314174f331461009a5780636f9fb98a146100c85780639dca362f146100f3578063d0e30db01461010a575b005b34801561007b57600080fd5b50610084610114565b6040518082815260200191505060405180910390f35b6100c6600480360360208110156100b057600080fd5b8101908080359060200190929190505050610248565b005b3480156100d457600080fd5b506100dd610657565b6040518082815260200191505060405180910390f35b3480156100ff57600080fd5b5061010861073b565b005b610112610941565b005b6000600260003373ffffffffffffffffffffffffffffffffffffffff1673ffffffffffffffffffffffffffffffffffffffff16815260200190815260200160002060000160009054906101000a900460ff161515610200576040517f08c379a00000000000000000000000000000000000000000000000000000000081526004018080602001828103825260238152602001807f596f75206e65656420746f2062652061206d656d626572206f6620746865206281526020017f616e6b000000000000000000000000000000000000000000000000000000000081525060400191505060405180910390fd5b600260003373ffffffffffffffffffffffffffffffffffffffff1673ffffffffffffffffffffffffffffffffffffffff16815260200190815260200160002060010154905090565b600260003373ffffffffffffffffffffffffffffffffffffffff1673ffffffffffffffffffffffffffffffffffffffff16815260200190815260200160002060000160009054906101000a900460ff161515610332576040517f08c379a00000000000000000000000000000000000000000000000000000000081526004018080602001828103825260238152602001807f596f75206e65656420746f2062652061206d656d626572206f6620746865206281526020017f616e6b000000000000000000000000000000000000000000000000000000000081525060400191505060405180910390fd5b600081600260003373ffffffffffffffffffffffffffffffffffffffff1673ffffffffffffffffffffffffffffffffffffffff16815260200190815260200160002060010154031115156103ee576040517f08c379a00000000000000000000000000000000000000000000000000000000081526004018080602001828103825260138152602001807f496e61766c6964205472616e73616374696f6e0000000000000000000000000081525060200191505060405180910390fd5b600081111515610466576040517f08c379a000000000000000000000000000000000000000000000000000000000815260040180806020018281038252601f8152602001807f416d6f756e742073686f756c642062652067726561746572207468616e20300081525060200191505060405180910390fd5b80600080828254039250508190555080600260003373ffffffffffffffffffffffffffffffffffffffff1673ffffffffffffffffffffffffffffffffffffffff168152602001908152602001600020600101600082825403925050819055503373ffffffffffffffffffffffffffffffffffffffff166108fc829081150290604051600060405180830381858888f19350505050151561056e576040517f08c379a000000000000000000000000000000000000000000000000000000000815260040180806020018281038252600f8152602001807f5472616e73666572204661696c6564000000000000000000000000000000000081525060200191505060405180910390fd5b7fe0fced18c96d5fecafed507c58979ba4aed75b5c59433b1eea2b136380d4e66133600260003373ffffffffffffffffffffffffffffffffffffffff1673ffffffffffffffffffffffffffffffffffffffff16815260200190815260200160002060010154604051808373ffffffffffffffffffffffffffffffffffffffff1673ffffffffffffffffffffffffffffffffffffffff16815260200182815260200180602001828103825260158152602001807f5375636365737366756c6c2057697468647277616c0000000000000000000000815250602001935050505060405180910390a150565b6000600160009054906101000a900473ffffffffffffffffffffffffffffffffffffffff1673ffffffffffffffffffffffffffffffffffffffff163373ffffffffffffffffffffffffffffffffffffffff1614151561071e576040517f08c379a00000000000000000000000000000000000000000000000000000000081526004018080602001828103825260168152602001807f596f7520617265206e6f7420617574686f72697a65640000000000000000000081525060200191505060405180910390fd5b3073ffffffffffffffffffffffffffffffffffffffff1631905090565b600260003373ffffffffffffffffffffffffffffffffffffffff1673ffffffffffffffffffffffffffffffffffffffff16815260200190815260200160002060000160009054906101000a900460ff16151515610800576040517f08c379a00000000000000000000000000000000000000000000000000000000081526004018080602001828103825260168152602001807f4163636f756e7420416c7265616479204578697374730000000000000000000081525060200191505060405180910390fd5b6000600260003373ffffffffffffffffffffffffffffffffffffffff1673ffffffffffffffffffffffffffffffffffffffff168152602001908152602001600020600101819055506001600260003373ffffffffffffffffffffffffffffffffffffffff1673ffffffffffffffffffffffffffffffffffffffff16815260200190815260200160002060000160006101000a81548160ff0219169083151502179055507f13810d3c52dd8720a6cebb2685d11ca2d594fc3468a0d955a2ce87c9c1dcf46533604051808273ffffffffffffffffffffffffffffffffffffffff1673ffffffffffffffffffffffffffffffffffffffff168152602001806020018281038252600f8152602001807f4163636f756e74206372656174656400000000000000000000000000000000008152506020019250505060405180910390a1565b6000341115156109b9576040517f08c379a00000000000000000000000000000000000000000000000000000000081526004018080602001828103825260188152602001807f436865636b20746865206465706f73697420616d6f756e74000000000000000081525060200191505060405180910390fd5b6000343373ffffffffffffffffffffffffffffffffffffffff163103111515610a4a576040517f08c379a00000000000000000000000000000000000000000000000000000000081526004018080602001828103825260138152602001807f496e76616c6964205472616e73616374696f6e0000000000000000000000000081525060200191505060405180910390fd5b600260003373ffffffffffffffffffffffffffffffffffffffff1673ffffffffffffffffffffffffffffffffffffffff16815260200190815260200160002060000160009054906101000a900460ff161515610b34576040517f08c379a00000000000000000000000000000000000000000000000000000000081526004018080602001828103825260238152602001807f596f75206e65656420746f2062652061206d656d626572206f6620746865206281526020017f616e6b000000000000000000000000000000000000000000000000000000000081525060400191505060405180910390fd5b34600080828254019250508190555034600260003373ffffffffffffffffffffffffffffffffffffffff1673ffffffffffffffffffffffffffffffffffffffff168152602001908152602001600020600101600082825401925050819055507f047203ab38a28e9aec6c1194dfcedd93f02f8f1b70ad99188eb981bc5df9a9b133604051808273ffffffffffffffffffffffffffffffffffffffff1673ffffffffffffffffffffffffffffffffffffffff16815260200180602001828103825260138152602001807f5375636365737366756c6c204465706f736974000000000000000000000000008152506020019250505060405180910390a156fea165627a7a723058205d23a0300dab319e11509c9a3e46713ebc390781122c1d31a22480bdbbe123270029",
  "source": "pragma solidity >=0.5.0;\r\n\r\ncontract bankingApplication{\r\n  event deposited(address _from, string message);\r\n  event withdrawal(address _from, uint newBalance, string message);\r\n  event createdAccount(address _from, string message);\r\n\r\n  struct accounts {\r\n    bool hasAccount;\r\n    uint balance;\r\n  }\r\n  uint private totalBalance;\r\n  address payable private admin;\r\n\r\n  mapping (address => accounts) ledger;\r\n\r\n  constructor() public{\r\n    totalBalance =0;\r\n    admin = msg.sender;\r\n    ledger[msg.sender].hasAccount = true;\r\n    ledger[msg.sender].balance =0;\r\n  }\r\n\r\n  function deposit() public payable  {\r\n    require(msg.value>0,\"Check the deposit amount\");\r\n    require(address(msg.sender).balance-msg.value>0,\"Invalid Transaction\");\r\n    require(ledger[msg.sender].hasAccount,\"You need to be a member of the bank\");\r\n\r\n    totalBalance += msg.value;\r\n    ledger[msg.sender].balance += msg.value;\r\n    emit deposited(msg.sender, \"Successfull Deposit\");\r\n  }\r\n\r\n  function withDraw(uint256 amount) public payable {\r\n    require(ledger[msg.sender].hasAccount,\"You need to be a member of the bank\");\r\n    require((ledger[msg.sender].balance-amount)>0,\"Inavlid Transaction\");\r\n    require(amount>0,\"Amount should be greater than 0\");\r\n    totalBalance -= amount;\r\n    ledger[msg.sender].balance -= amount;\r\n    require(msg.sender.send(amount),\"Transfer Failed\");\r\n    emit withdrawal(msg.sender,ledger[msg.sender].balance, \"Successfull Withdrwal\");\r\n  }\r\n\r\n  function getBalance() public view returns(uint) {\r\n    require(ledger[msg.sender].hasAccount,\"You need to be a member of the bank\");\r\n    return ledger[msg.sender].balance;\r\n  }\r\n\r\n  function createAccount() public  {\r\n    require(!ledger[msg.sender].hasAccount,\"Account Already Exists\");\r\n    ledger[msg.sender].balance=0;\r\n    ledger[msg.sender].hasAccount=true;\r\n    emit createdAccount(msg.sender, \"Account created\");\r\n  }\r\n\r\n  function getContractBalance() public view returns (uint){\r\n    require(msg.sender==admin,\"You are not authorized\");\r\n    return address(this).balance;\r\n  }\r\n\r\n  function () external payable {\r\n\r\n  }\r\n}\r\n",
  "sourcePath": "Z:/Personal Notes/Ethereum/Smart Contracts/Banking Application/contracts/banking.sol",
  "compiler": {
    "name": "solc",
    "version": "0.5.0+commit.1d4f565a.Emscripten.clang"
  },
  "schemaVersion": "3.0.6",
  "updatedAt": "2019-05-05T23:58:16.309Z",
  "devdoc": {
    "methods": {}
  },
  "userdoc": {
    "methods": {}
  }
}