{
  "contractName": "bankingApplication",
  "abi": [
    {
      "inputs": [],
      "payable": false,
      "stateMutability": "nonpayable",
      "type": "constructor"
    },
    {
      "payable": true,
      "stateMutability": "payable",
      "type": "fallback"
    },
    {
      "constant": false,
      "inputs": [],
      "name": "deposit",
      "outputs": [
        {
          "name": "",
          "type": "string"
        }
      ],
      "payable": true,
      "stateMutability": "payable",
      "type": "function"
    },
    {
      "constant": false,
      "inputs": [
        {
          "name": "amount",
          "type": "uint256"
        }
      ],
      "name": "withDraw",
      "outputs": [
        {
          "name": "",
          "type": "string"
        },
        {
          "name": "",
          "type": "uint256"
        }
      ],
      "payable": true,
      "stateMutability": "payable",
      "type": "function"
    },
    {
      "constant": false,
      "inputs": [],
      "name": "getBalance",
      "outputs": [
        {
          "name": "",
          "type": "uint256"
        }
      ],
      "payable": false,
      "stateMutability": "nonpayable",
      "type": "function"
    },
    {
      "constant": false,
      "inputs": [],
      "name": "createAccount",
      "outputs": [
        {
          "name": "",
          "type": "string"
        }
      ],
      "payable": false,
      "stateMutability": "nonpayable",
      "type": "function"
    },
    {
      "constant": false,
      "inputs": [],
      "name": "getContractBalance",
      "outputs": [
        {
          "name": "",
          "type": "uint256"
        }
      ],
      "payable": false,
      "stateMutability": "nonpayable",
      "type": "function"
    }
  ],
  "bytecode": "0x608060405234801561001057600080fd5b506000808190555033600160006101000a81548173ffffffffffffffffffffffffffffffffffffffff021916908373ffffffffffffffffffffffffffffffffffffffff1602179055506001600260003373ffffffffffffffffffffffffffffffffffffffff1673ffffffffffffffffffffffffffffffffffffffff16815260200190815260200160002060000160006101000a81548160ff0219169083151502179055506000600260003373ffffffffffffffffffffffffffffffffffffffff1673ffffffffffffffffffffffffffffffffffffffff16815260200190815260200160002060010181905550610cab8061010b6000396000f3fe60806040526004361061006d576000357c0100000000000000000000000000000000000000000000000000000000900463ffffffff16806312065fe01461006f57806314174f331461009a5780636f9fb98a146101485780639dca362f14610173578063d0e30db014610203575b005b34801561007b57600080fd5b50610084610286565b6040518082815260200191505060405180910390f35b6100c6600480360360208110156100b057600080fd5b81019080803590602001909291905050506103ba565b6040518080602001838152602001828103825284818151815260200191508051906020019080838360005b8381101561010c5780820151818401526020810190506100f1565b50505050905090810190601f1680156101395780820380516001836020036101000a031916815260200191505b50935050505060405180910390f35b34801561015457600080fd5b5061015d610767565b6040518082815260200191505060405180910390f35b34801561017f57600080fd5b5061018861084b565b6040518080602001828103825283818151815260200191508051906020019080838360005b838110156101c85780820151818401526020810190506101ad565b50505050905090810190601f1680156101f55780820380516001836020036101000a031916815260200191505b509250505060405180910390f35b61020b6109f0565b6040518080602001828103825283818151815260200191508051906020019080838360005b8381101561024b578082015181840152602081019050610230565b50505050905090810190601f1680156102785780820380516001836020036101000a031916815260200191505b509250505060405180910390f35b6000600260003373ffffffffffffffffffffffffffffffffffffffff1673ffffffffffffffffffffffffffffffffffffffff16815260200190815260200160002060000160009054906101000a900460ff161515610372576040517f08c379a00000000000000000000000000000000000000000000000000000000081526004018080602001828103825260238152602001807f596f75206e65656420746f2062652061206d656d626572206f6620746865206281526020017f616e6b000000000000000000000000000000000000000000000000000000000081525060400191505060405180910390fd5b600260003373ffffffffffffffffffffffffffffffffffffffff1673ffffffffffffffffffffffffffffffffffffffff16815260200190815260200160002060010154905090565b60606000600260003373ffffffffffffffffffffffffffffffffffffffff1673ffffffffffffffffffffffffffffffffffffffff16815260200190815260200160002060000160009054906101000a900460ff1615156104a8576040517f08c379a00000000000000000000000000000000000000000000000000000000081526004018080602001828103825260238152602001807f596f75206e65656420746f2062652061206d656d626572206f6620746865206281526020017f616e6b000000000000000000000000000000000000000000000000000000000081525060400191505060405180910390fd5b600083600260003373ffffffffffffffffffffffffffffffffffffffff1673ffffffffffffffffffffffffffffffffffffffff1681526020019081526020016000206001015403111515610564576040517f08c379a00000000000000000000000000000000000000000000000000000000081526004018080602001828103825260138152602001807f496e61766c6964205472616e73616374696f6e0000000000000000000000000081525060200191505060405180910390fd5b6000831115156105dc576040517f08c379a000000000000000000000000000000000000000000000000000000000815260040180806020018281038252601f8152602001807f416d6f756e742073686f756c642062652067726561746572207468616e20300081525060200191505060405180910390fd5b82600080828254039250508190555082600260003373ffffffffffffffffffffffffffffffffffffffff1673ffffffffffffffffffffffffffffffffffffffff168152602001908152602001600020600101600082825403925050819055503373ffffffffffffffffffffffffffffffffffffffff166108fc849081150290604051600060405180830381858888f1935050505015156106e4576040517f08c379a000000000000000000000000000000000000000000000000000000000815260040180806020018281038252600f8152602001807f5472616e73666572204661696c6564000000000000000000000000000000000081525060200191505060405180910390fd5b600260003373ffffffffffffffffffffffffffffffffffffffff1673ffffffffffffffffffffffffffffffffffffffff168152602001908152602001600020600101546040805190810160405280600c81526020017f4e65772042616c616e63652000000000000000000000000000000000000000008152509091509150915091565b6000600160009054906101000a900473ffffffffffffffffffffffffffffffffffffffff1673ffffffffffffffffffffffffffffffffffffffff163373ffffffffffffffffffffffffffffffffffffffff1614151561082e576040517f08c379a00000000000000000000000000000000000000000000000000000000081526004018080602001828103825260168152602001807f596f7520617265206e6f7420617574686f72697a65640000000000000000000081525060200191505060405180910390fd5b3073ffffffffffffffffffffffffffffffffffffffff1631905090565b6060600260003373ffffffffffffffffffffffffffffffffffffffff1673ffffffffffffffffffffffffffffffffffffffff16815260200190815260200160002060000160009054906101000a900460ff16151515610912576040517f08c379a00000000000000000000000000000000000000000000000000000000081526004018080602001828103825260168152602001807f4163636f756e7420416c7265616479204578697374730000000000000000000081525060200191505060405180910390fd5b6000600260003373ffffffffffffffffffffffffffffffffffffffff1673ffffffffffffffffffffffffffffffffffffffff168152602001908152602001600020600101819055506001600260003373ffffffffffffffffffffffffffffffffffffffff1673ffffffffffffffffffffffffffffffffffffffff16815260200190815260200160002060000160006101000a81548160ff0219169083151502179055506040805190810160405280601981526020017f4163636f756e7420637265617465642e2057656c636f6d652100000000000000815250905090565b6060600034111515610a6a576040517f08c379a00000000000000000000000000000000000000000000000000000000081526004018080602001828103825260188152602001807f436865636b20746865206465706f73697420616d6f756e74000000000000000081525060200191505060405180910390fd5b6000343373ffffffffffffffffffffffffffffffffffffffff163103111515610afb576040517f08c379a00000000000000000000000000000000000000000000000000000000081526004018080602001828103825260138152602001807f496e76616c6964205472616e73616374696f6e0000000000000000000000000081525060200191505060405180910390fd5b600260003373ffffffffffffffffffffffffffffffffffffffff1673ffffffffffffffffffffffffffffffffffffffff16815260200190815260200160002060000160009054906101000a900460ff161515610be5576040517f08c379a00000000000000000000000000000000000000000000000000000000081526004018080602001828103825260238152602001807f596f75206e65656420746f2062652061206d656d626572206f6620746865206281526020017f616e6b000000000000000000000000000000000000000000000000000000000081525060400191505060405180910390fd5b34600080828254019250508190555034600260003373ffffffffffffffffffffffffffffffffffffffff1673ffffffffffffffffffffffffffffffffffffffff168152602001908152602001600020600101600082825401925050819055506040805190810160405280601181526020017f4465706f736974203a205375636365737300000000000000000000000000000081525090509056fea165627a7a72305820da3b7f66eae3083e5e7247245bc543b875aef1b6beaca1af64d65dd74d0b8a580029",
  "source": "pragma solidity >=0.5.0;\r\n\r\ncontract bankingApplication{\r\n  struct accounts {\r\n    bool hasAccount;\r\n    uint balance;\r\n  }\r\n  uint private totalBalance;\r\n  address payable private admin;\r\n\r\n  mapping (address => accounts) ledger;\r\n\r\n  constructor() public{\r\n    totalBalance =0;\r\n    admin = msg.sender;\r\n    ledger[msg.sender].hasAccount = true;\r\n    ledger[msg.sender].balance =0;\r\n  }\r\n\r\n  function deposit() public payable returns (string memory) {\r\n    require(msg.value>0,\"Check the deposit amount\");\r\n    require(address(msg.sender).balance-msg.value>0,\"Invalid Transaction\");\r\n    require(ledger[msg.sender].hasAccount,\"You need to be a member of the bank\");\r\n    totalBalance += msg.value;\r\n    ledger[msg.sender].balance += msg.value;\r\n    return \"Deposit : Success\";\r\n  }\r\n\r\n  function withDraw(uint256 amount) public payable returns(string memory, uint){\r\n    require(ledger[msg.sender].hasAccount,\"You need to be a member of the bank\");\r\n    require((ledger[msg.sender].balance-amount)>0,\"Inavlid Transaction\");\r\n    require(amount>0,\"Amount should be greater than 0\");\r\n    totalBalance -= amount;\r\n    ledger[msg.sender].balance -= amount;\r\n    require(msg.sender.send(amount),\"Transfer Failed\");\r\n    return (\"New Balance \",ledger[msg.sender].balance);\r\n  }\r\n\r\n  function getBalance() public returns(uint) {\r\n    require(ledger[msg.sender].hasAccount,\"You need to be a member of the bank\");\r\n    return ledger[msg.sender].balance;\r\n  }\r\n\r\n  function createAccount() public returns (string memory) {\r\n    require(!ledger[msg.sender].hasAccount,\"Account Already Exists\");\r\n    ledger[msg.sender].balance=0;\r\n    ledger[msg.sender].hasAccount=true;\r\n    return \"Account created. Welcome!\";\r\n  }\r\n\r\n  function getContractBalance() public returns (uint){\r\n    require(msg.sender==admin,\"You are not authorized\");\r\n    return address(this).balance;\r\n  }\r\n\r\n  function () external payable {\r\n\r\n  }\r\n}\r\n",
  "sourcePath": "Z:/Personal Notes/Ethereum/Smart Contracts/Banking Application/contracts/banking.sol",
  "compiler": {
    "name": "solc",
    "version": "0.5.0+commit.1d4f565a.Emscripten.clang"
  },
  "schemaVersion": "3.0.6",
  "updatedAt": "2019-04-30T21:51:25.483Z",
  "devdoc": {
    "methods": {}
  },
  "userdoc": {
    "methods": {}
  }
}